{
  "_format": "hh-sol-artifact-1",
  "contractName": "SimpleMarketplaceNativeERC721",
  "sourceName": "contracts/SimpleMarketplaceNativeERC721.sol",
  "abi": [
    {
      "anonymous": false,
      "inputs": [
        {
          "indexed": true,
          "internalType": "uint256",
          "name": "listId",
          "type": "uint256"
        },
        {
          "indexed": true,
          "internalType": "uint256",
          "name": "tokenId",
          "type": "uint256"
        },
        {
          "indexed": true,
          "internalType": "address",
          "name": "seller",
          "type": "address"
        },
        {
          "indexed": false,
          "internalType": "uint256",
          "name": "price",
          "type": "uint256"
        },
        {
          "indexed": false,
          "internalType": "address",
          "name": "currency",
          "type": "address"
        },
        {
          "indexed": false,
          "internalType": "uint256",
          "name": "timestamp",
          "type": "uint256"
        }
      ],
      "name": "NewListing",
      "type": "event"
    },
    {
      "anonymous": false,
      "inputs": [
        {
          "indexed": true,
          "internalType": "address",
          "name": "nft",
          "type": "address"
        },
        {
          "indexed": false,
          "internalType": "address",
          "name": "setter",
          "type": "address"
        }
      ],
      "name": "NftSet",
      "type": "event"
    },
    {
      "anonymous": false,
      "inputs": [
        {
          "indexed": true,
          "internalType": "address",
          "name": "previousOwner",
          "type": "address"
        },
        {
          "indexed": true,
          "internalType": "address",
          "name": "newOwner",
          "type": "address"
        }
      ],
      "name": "OwnershipTransferred",
      "type": "event"
    },
    {
      "anonymous": false,
      "inputs": [
        {
          "indexed": true,
          "internalType": "uint256",
          "name": "tokenId",
          "type": "uint256"
        },
        {
          "indexed": true,
          "internalType": "address",
          "name": "seller",
          "type": "address"
        },
        {
          "indexed": true,
          "internalType": "address",
          "name": "buyer",
          "type": "address"
        },
        {
          "indexed": false,
          "internalType": "uint256",
          "name": "price",
          "type": "uint256"
        },
        {
          "indexed": false,
          "internalType": "address",
          "name": "currency",
          "type": "address"
        },
        {
          "indexed": false,
          "internalType": "uint256",
          "name": "timestamp",
          "type": "uint256"
        }
      ],
      "name": "Sold",
      "type": "event"
    },
    {
      "inputs": [
        {
          "internalType": "uint256",
          "name": "tokenId",
          "type": "uint256"
        }
      ],
      "name": "buy",
      "outputs": [],
      "stateMutability": "payable",
      "type": "function"
    },
    {
      "inputs": [
        {
          "internalType": "address[]",
          "name": "contracts",
          "type": "address[]"
        }
      ],
      "name": "connectToOtherContracts",
      "outputs": [],
      "stateMutability": "nonpayable",
      "type": "function"
    },
    {
      "inputs": [
        {
          "internalType": "uint256",
          "name": "tokenId",
          "type": "uint256"
        },
        {
          "internalType": "uint256",
          "name": "price",
          "type": "uint256"
        }
      ],
      "name": "list",
      "outputs": [],
      "stateMutability": "nonpayable",
      "type": "function"
    },
    {
      "inputs": [
        {
          "internalType": "uint256",
          "name": "",
          "type": "uint256"
        }
      ],
      "name": "listings",
      "outputs": [
        {
          "internalType": "address",
          "name": "seller",
          "type": "address"
        },
        {
          "internalType": "address",
          "name": "currency",
          "type": "address"
        },
        {
          "internalType": "uint256",
          "name": "tokenId",
          "type": "uint256"
        },
        {
          "internalType": "uint256",
          "name": "price",
          "type": "uint256"
        },
        {
          "internalType": "bool",
          "name": "isSold",
          "type": "bool"
        },
        {
          "internalType": "bool",
          "name": "exist",
          "type": "bool"
        }
      ],
      "stateMutability": "view",
      "type": "function"
    },
    {
      "inputs": [],
      "name": "nft",
      "outputs": [
        {
          "internalType": "address",
          "name": "",
          "type": "address"
        }
      ],
      "stateMutability": "view",
      "type": "function"
    },
    {
      "inputs": [],
      "name": "owner",
      "outputs": [
        {
          "internalType": "address",
          "name": "",
          "type": "address"
        }
      ],
      "stateMutability": "view",
      "type": "function"
    },
    {
      "inputs": [],
      "name": "renounceOwnership",
      "outputs": [],
      "stateMutability": "nonpayable",
      "type": "function"
    },
    {
      "inputs": [
        {
          "internalType": "uint256",
          "name": "",
          "type": "uint256"
        }
      ],
      "name": "tokensListing",
      "outputs": [
        {
          "internalType": "uint256",
          "name": "",
          "type": "uint256"
        }
      ],
      "stateMutability": "view",
      "type": "function"
    },
    {
      "inputs": [
        {
          "internalType": "address",
          "name": "newOwner",
          "type": "address"
        }
      ],
      "name": "transferOwnership",
      "outputs": [],
      "stateMutability": "nonpayable",
      "type": "function"
    }
  ],
  "bytecode": "0x608060405234801561001057600080fd5b5061002d61002261003260201b60201c565b61003a60201b60201c565b6100fe565b600033905090565b60008060009054906101000a900473ffffffffffffffffffffffffffffffffffffffff169050816000806101000a81548173ffffffffffffffffffffffffffffffffffffffff021916908373ffffffffffffffffffffffffffffffffffffffff1602179055508173ffffffffffffffffffffffffffffffffffffffff168173ffffffffffffffffffffffffffffffffffffffff167f8be0079c531659141344cd1fd0a4f28419497f9722a3daafe3b4186f6b6457e060405160405180910390a35050565b611dac8061010d6000396000f3fe6080604052600436106100865760003560e01c80638da5cb5b116100595780638da5cb5b14610133578063a82462a81461015e578063d96a094a14610187578063de74e57b146101a3578063f2fde38b146101e557610086565b806347ccca021461008b57806350fd7367146100b6578063715018a6146100df578063750e0155146100f6575b600080fd5b34801561009757600080fd5b506100a061020e565b6040516100ad91906112f1565b60405180910390f35b3480156100c257600080fd5b506100dd60048036038101906100d8919061134c565b610234565b005b3480156100eb57600080fd5b506100f461064a565b005b34801561010257600080fd5b5061011d6004803603810190610118919061138c565b6106d2565b60405161012a91906113c8565b60405180910390f35b34801561013f57600080fd5b506101486106ea565b60405161015591906112f1565b60405180910390f35b34801561016a57600080fd5b5061018560048036038101906101809190611448565b610713565b005b6101a1600480360381019061019c919061138c565b6107c4565b005b3480156101af57600080fd5b506101ca60048036038101906101c5919061138c565b610bce565b6040516101dc969594939291906114b0565b60405180910390f35b3480156101f157600080fd5b5061020c6004803603810190610207919061153d565b610c64565b005b600260009054906101000a900473ffffffffffffffffffffffffffffffffffffffff1681565b8161023e81610d5c565b8261024881610e84565b6102526001610fa5565b600061025e6001610fbb565b905060006004600087815260200190815260200160002054146102b6576040517f08c379a00000000000000000000000000000000000000000000000000000000081526004016102ad906115c7565b60405180910390fd5b806004600087815260200190815260200160002081905550600060036000600460008981526020019081526020016000205481526020019081526020016000206040518060c00160405290816000820160009054906101000a900473ffffffffffffffffffffffffffffffffffffffff1673ffffffffffffffffffffffffffffffffffffffff1673ffffffffffffffffffffffffffffffffffffffff1681526020016001820160009054906101000a900473ffffffffffffffffffffffffffffffffffffffff1673ffffffffffffffffffffffffffffffffffffffff1673ffffffffffffffffffffffffffffffffffffffff16815260200160028201548152602001600382015481526020016004820160009054906101000a900460ff161515151581526020016004820160019054906101000a900460ff1615151515815250509050600015158160a00151151514610444576040517f08c379a000000000000000000000000000000000000000000000000000000000815260040161043b90611633565b60405180910390fd5b60001515816080015115151461048f576040517f08c379a0000000000000000000000000000000000000000000000000000000008152600401610486906116c5565b60405180910390fd5b60006040518060c001604052803373ffffffffffffffffffffffffffffffffffffffff168152602001600073ffffffffffffffffffffffffffffffffffffffff168152602001888152602001878152602001600015158152602001600115158152509050806003600085815260200190815260200160002060008201518160000160006101000a81548173ffffffffffffffffffffffffffffffffffffffff021916908373ffffffffffffffffffffffffffffffffffffffff16021790555060208201518160010160006101000a81548173ffffffffffffffffffffffffffffffffffffffff021916908373ffffffffffffffffffffffffffffffffffffffff160217905550604082015181600201556060820151816003015560808201518160040160006101000a81548160ff02191690831515021790555060a08201518160040160016101000a81548160ff0219169083151502179055509050503373ffffffffffffffffffffffffffffffffffffffff1687847f6f6ddf8366b3114f911e188b474e5c606683a37c78ddb0b6c240aa40034e30fe89600042604051610639939291906116e5565b60405180910390a450505050505050565b610652610fc9565b73ffffffffffffffffffffffffffffffffffffffff166106706106ea565b73ffffffffffffffffffffffffffffffffffffffff16146106c6576040517f08c379a00000000000000000000000000000000000000000000000000000000081526004016106bd90611768565b60405180910390fd5b6106d06000610fd1565b565b60046020528060005260406000206000915090505481565b60008060009054906101000a900473ffffffffffffffffffffffffffffffffffffffff16905090565b61071b610fc9565b73ffffffffffffffffffffffffffffffffffffffff166107396106ea565b73ffffffffffffffffffffffffffffffffffffffff161461078f576040517f08c379a000000000000000000000000000000000000000000000000000000000815260040161078690611768565b60405180910390fd5b6107c0828260008181106107a6576107a5611788565b5b90506020020160208101906107bb919061153d565b611095565b5050565b60006003600060046000858152602001908152602001600020548152602001908152602001600020905034816003015414610834576040517f08c379a000000000000000000000000000000000000000000000000000000000815260040161082b90611829565b60405180910390fd5b600015158160040160009054906101000a900460ff1615151461088c576040517f08c379a0000000000000000000000000000000000000000000000000000000008152600401610883906118bb565b60405180910390fd5b600115158160040160019054906101000a900460ff161515146108e4576040517f08c379a00000000000000000000000000000000000000000000000000000000081526004016108db90611927565b60405180910390fd5b600073ffffffffffffffffffffffffffffffffffffffff168160010160009054906101000a900473ffffffffffffffffffffffffffffffffffffffff1673ffffffffffffffffffffffffffffffffffffffff1614610977576040517f08c379a000000000000000000000000000000000000000000000000000000000815260040161096e906119b9565b60405180910390fd5b3373ffffffffffffffffffffffffffffffffffffffff168160000160009054906101000a900473ffffffffffffffffffffffffffffffffffffffff1673ffffffffffffffffffffffffffffffffffffffff161415610a0a576040517f08c379a0000000000000000000000000000000000000000000000000000000008152600401610a0190611a4b565b60405180910390fd5b6000610a146111b8565b90508073ffffffffffffffffffffffffffffffffffffffff1663b88d4fde8360000160009054906101000a900473ffffffffffffffffffffffffffffffffffffffff1633866040518463ffffffff1660e01b8152600401610a7793929190611aa2565b600060405180830381600087803b158015610a9157600080fd5b505af1158015610aa5573d6000803e3d6000fd5b505050508160000160009054906101000a900473ffffffffffffffffffffffffffffffffffffffff1673ffffffffffffffffffffffffffffffffffffffff166108fc349081150290604051600060405180830381858888f19350505050158015610b13573d6000803e3d6000fd5b5060018260040160006101000a81548160ff0219169083151502179055503373ffffffffffffffffffffffffffffffffffffffff168260000160009054906101000a900473ffffffffffffffffffffffffffffffffffffffff1673ffffffffffffffffffffffffffffffffffffffff16847f96c9ec2719e9c93db24f5633fb986eda961191a251fa28ebf973cda1df731ab234600042604051610bb8939291906116e5565b60405180910390a4610bc9836111e7565b505050565b60036020528060005260406000206000915090508060000160009054906101000a900473ffffffffffffffffffffffffffffffffffffffff16908060010160009054906101000a900473ffffffffffffffffffffffffffffffffffffffff16908060020154908060030154908060040160009054906101000a900460ff16908060040160019054906101000a900460ff16905086565b610c6c610fc9565b73ffffffffffffffffffffffffffffffffffffffff16610c8a6106ea565b73ffffffffffffffffffffffffffffffffffffffff1614610ce0576040517f08c379a0000000000000000000000000000000000000000000000000000000008152600401610cd790611768565b60405180910390fd5b600073ffffffffffffffffffffffffffffffffffffffff168173ffffffffffffffffffffffffffffffffffffffff161415610d50576040517f08c379a0000000000000000000000000000000000000000000000000000000008152600401610d4790611b5e565b60405180910390fd5b610d5981610fd1565b50565b6000600260009054906101000a900473ffffffffffffffffffffffffffffffffffffffff169050610d8b610fc9565b73ffffffffffffffffffffffffffffffffffffffff168173ffffffffffffffffffffffffffffffffffffffff16636352211e846040518263ffffffff1660e01b8152600401610dda91906113c8565b60206040518083038186803b158015610df257600080fd5b505afa158015610e06573d6000803e3d6000fd5b505050506040513d601f19601f82011682018060405250810190610e2a9190611b93565b73ffffffffffffffffffffffffffffffffffffffff1614610e80576040517f08c379a0000000000000000000000000000000000000000000000000000000008152600401610e7790611c0c565b60405180910390fd5b5050565b6000600260009054906101000a900473ffffffffffffffffffffffffffffffffffffffff1690503073ffffffffffffffffffffffffffffffffffffffff168173ffffffffffffffffffffffffffffffffffffffff1663081812fc846040518263ffffffff1660e01b8152600401610efb91906113c8565b60206040518083038186803b158015610f1357600080fd5b505afa158015610f27573d6000803e3d6000fd5b505050506040513d601f19601f82011682018060405250810190610f4b9190611b93565b73ffffffffffffffffffffffffffffffffffffffff1614610fa1576040517f08c379a0000000000000000000000000000000000000000000000000000000008152600401610f9890611c9e565b60405180910390fd5b5050565b6001816000016000828254019250508190555050565b600081600001549050919050565b600033905090565b60008060009054906101000a900473ffffffffffffffffffffffffffffffffffffffff169050816000806101000a81548173ffffffffffffffffffffffffffffffffffffffff021916908373ffffffffffffffffffffffffffffffffffffffff1602179055508173ffffffffffffffffffffffffffffffffffffffff168173ffffffffffffffffffffffffffffffffffffffff167f8be0079c531659141344cd1fd0a4f28419497f9722a3daafe3b4186f6b6457e060405160405180910390a35050565b8073ffffffffffffffffffffffffffffffffffffffff16600260009054906101000a900473ffffffffffffffffffffffffffffffffffffffff1673ffffffffffffffffffffffffffffffffffffffff161415611126576040517f08c379a000000000000000000000000000000000000000000000000000000000815260040161111d90611d56565b60405180910390fd5b80600260006101000a81548173ffffffffffffffffffffffffffffffffffffffff021916908373ffffffffffffffffffffffffffffffffffffffff1602179055508073ffffffffffffffffffffffffffffffffffffffff167f6dd9926eceb4cb79cd41b9c44a7ab6fa0cc6aa94081f3657aed1995796b97883336040516111ad91906112f1565b60405180910390a250565b600080600260009054906101000a900473ffffffffffffffffffffffffffffffffffffffff1690508091505090565b6003600060046000848152602001908152602001600020548152602001908152602001600020600080820160006101000a81549073ffffffffffffffffffffffffffffffffffffffff02191690556001820160006101000a81549073ffffffffffffffffffffffffffffffffffffffff0219169055600282016000905560038201600090556004820160006101000a81549060ff02191690556004820160016101000a81549060ff02191690555050600460008281526020019081526020016000206000905550565b600073ffffffffffffffffffffffffffffffffffffffff82169050919050565b60006112db826112b0565b9050919050565b6112eb816112d0565b82525050565b600060208201905061130660008301846112e2565b92915050565b600080fd5b600080fd5b6000819050919050565b61132981611316565b811461133457600080fd5b50565b60008135905061134681611320565b92915050565b600080604083850312156113635761136261130c565b5b600061137185828601611337565b925050602061138285828601611337565b9150509250929050565b6000602082840312156113a2576113a161130c565b5b60006113b084828501611337565b91505092915050565b6113c281611316565b82525050565b60006020820190506113dd60008301846113b9565b92915050565b600080fd5b600080fd5b600080fd5b60008083601f840112611408576114076113e3565b5b8235905067ffffffffffffffff811115611425576114246113e8565b5b602083019150836020820283011115611441576114406113ed565b5b9250929050565b6000806020838503121561145f5761145e61130c565b5b600083013567ffffffffffffffff81111561147d5761147c611311565b5b611489858286016113f2565b92509250509250929050565b60008115159050919050565b6114aa81611495565b82525050565b600060c0820190506114c560008301896112e2565b6114d260208301886112e2565b6114df60408301876113b9565b6114ec60608301866113b9565b6114f960808301856114a1565b61150660a08301846114a1565b979650505050505050565b61151a816112d0565b811461152557600080fd5b50565b60008135905061153781611511565b92915050565b6000602082840312156115535761155261130c565b5b600061156184828501611528565b91505092915050565b600082825260208201905092915050565b7f4d61726b6574706c6163653a20696e76616c6964206c697374696e6749640000600082015250565b60006115b1601e8361156a565b91506115bc8261157b565b602082019050919050565b600060208201905081810360008301526115e0816115a4565b9050919050565b7f4d61726b6574706c6163653a204c69737420616c726561647920657869737400600082015250565b600061161d601f8361156a565b9150611628826115e7565b602082019050919050565b6000602082019050818103600083015261164c81611610565b9050919050565b7f4d61726b6574706c6163653a2043616e206e6f74206c69737420616e20616c7260008201527f6561647920736f6c64206974656d000000000000000000000000000000000000602082015250565b60006116af602e8361156a565b91506116ba82611653565b604082019050919050565b600060208201905081810360008301526116de816116a2565b9050919050565b60006060820190506116fa60008301866113b9565b61170760208301856112e2565b61171460408301846113b9565b949350505050565b7f4f776e61626c653a2063616c6c6572206973206e6f7420746865206f776e6572600082015250565b600061175260208361156a565b915061175d8261171c565b602082019050919050565b6000602082019050818103600083015261178181611745565b9050919050565b7f4e487b7100000000000000000000000000000000000000000000000000000000600052603260045260246000fd5b7f4d61726b6574706c6163653a206e6f7420656e6f75676820746f6b656e73207360008201527f656e640000000000000000000000000000000000000000000000000000000000602082015250565b600061181360238361156a565b915061181e826117b7565b604082019050919050565b6000602082019050818103600083015261184281611806565b9050919050565b7f4d61726b6574706c6163653a206974656d20697320616c726561647920736f6c60008201527f6400000000000000000000000000000000000000000000000000000000000000602082015250565b60006118a560218361156a565b91506118b082611849565b604082019050919050565b600060208201905081810360008301526118d481611898565b9050919050565b7f4d61726b6574706c6163653a206974656d20646f6573206e6f74206578697374600082015250565b600061191160208361156a565b915061191c826118db565b602082019050919050565b6000602082019050818103600083015261194081611904565b9050919050565b7f4d61726b6574706c6163653a206974656d2063757272656e6379206973206e6f60008201527f7420746865206e6174697665206f6e6500000000000000000000000000000000602082015250565b60006119a360308361156a565b91506119ae82611947565b604082019050919050565b600060208201905081810360008301526119d281611996565b9050919050565b7f4d61726b6574706c6163653a2073656c6c657220686173207468652073616d6560008201527f2061646472657373206173206275796572000000000000000000000000000000602082015250565b6000611a3560318361156a565b9150611a40826119d9565b604082019050919050565b60006020820190508181036000830152611a6481611a28565b9050919050565b600082825260208201905092915050565b50565b6000611a8c600083611a6b565b9150611a9782611a7c565b600082019050919050565b6000608082019050611ab760008301866112e2565b611ac460208301856112e2565b611ad160408301846113b9565b8181036060830152611ae281611a7f565b9050949350505050565b7f4f776e61626c653a206e6577206f776e657220697320746865207a65726f206160008201527f6464726573730000000000000000000000000000000000000000000000000000602082015250565b6000611b4860268361156a565b9150611b5382611aec565b604082019050919050565b60006020820190508181036000830152611b7781611b3b565b9050919050565b600081519050611b8d81611511565b92915050565b600060208284031215611ba957611ba861130c565b5b6000611bb784828501611b7e565b91505092915050565b7f4d61726b6574706c6163653a204e6f7420746865206974656d206f776e657200600082015250565b6000611bf6601f8361156a565b9150611c0182611bc0565b602082019050919050565b60006020820190508181036000830152611c2581611be9565b9050919050565b7f4d61726b6574706c6163653a204d61726b6574706c616365206973206e6f742060008201527f617070726f76656420746f20757365207468697320746f6b656e496400000000602082015250565b6000611c88603c8361156a565b9150611c9382611c2c565b604082019050919050565b60006020820190508181036000830152611cb781611c7b565b9050919050565b7f4d61726b6574706c6163653a204e6577204e465420636f6e747261637420616460008201527f647265737320686176652073616d652076616c756520617320746865206f6c6460208201527f206f6e6500000000000000000000000000000000000000000000000000000000604082015250565b6000611d4060448361156a565b9150611d4b82611cbe565b606082019050919050565b60006020820190508181036000830152611d6f81611d33565b905091905056fea2646970667358221220ba35f10bebf94257023aa693178c62c885c0043555b3b05bfb140d5d312e1e4764736f6c63430008090033",
  "linkReferences": {},
  "deployedLinkReferences": {}
}